{
  "contractName": "Dex",
  "abi": [
    {
      "inputs": [
        {
          "internalType": "contract Dai",
          "name": "_dai",
          "type": "address"
        }
      ],
      "payable": false,
      "stateMutability": "nonpayable",
      "type": "constructor"
    },
    {
      "anonymous": false,
      "inputs": [
        {
          "indexed": false,
          "internalType": "address",
          "name": "account",
          "type": "address"
        },
        {
          "indexed": false,
          "internalType": "address",
          "name": "token",
          "type": "address"
        },
        {
          "indexed": false,
          "internalType": "uint256",
          "name": "daiToTransfer",
          "type": "uint256"
        },
        {
          "indexed": false,
          "internalType": "uint256",
          "name": "k",
          "type": "uint256"
        },
        {
          "indexed": false,
          "internalType": "uint256",
          "name": "requested",
          "type": "uint256"
        },
        {
          "indexed": false,
          "internalType": "uint256",
          "name": "newEthBalance",
          "type": "uint256"
        },
        {
          "indexed": false,
          "internalType": "uint256",
          "name": "daiBalance",
          "type": "uint256"
        }
      ],
      "name": "TokensPurchased",
      "type": "event"
    },
    {
      "anonymous": false,
      "inputs": [
        {
          "indexed": false,
          "internalType": "address",
          "name": "account",
          "type": "address"
        },
        {
          "indexed": false,
          "internalType": "address",
          "name": "token",
          "type": "address"
        },
        {
          "indexed": false,
          "internalType": "uint256",
          "name": "amount",
          "type": "uint256"
        },
        {
          "indexed": false,
          "internalType": "uint256",
          "name": "k",
          "type": "uint256"
        },
        {
          "indexed": false,
          "internalType": "uint256",
          "name": "contractDaiBalance",
          "type": "uint256"
        },
        {
          "indexed": false,
          "internalType": "uint256",
          "name": "newDaiBalance",
          "type": "uint256"
        },
        {
          "indexed": false,
          "internalType": "uint256",
          "name": "newPrice",
          "type": "uint256"
        },
        {
          "indexed": false,
          "internalType": "uint256",
          "name": "previousBalance",
          "type": "uint256"
        },
        {
          "indexed": false,
          "internalType": "uint256",
          "name": "ethToTransfer",
          "type": "uint256"
        }
      ],
      "name": "TokensSold",
      "type": "event"
    },
    {
      "constant": true,
      "inputs": [],
      "name": "dai",
      "outputs": [
        {
          "internalType": "contract Dai",
          "name": "",
          "type": "address"
        }
      ],
      "payable": false,
      "stateMutability": "view",
      "type": "function"
    },
    {
      "constant": true,
      "inputs": [],
      "name": "k",
      "outputs": [
        {
          "internalType": "uint256",
          "name": "",
          "type": "uint256"
        }
      ],
      "payable": false,
      "stateMutability": "view",
      "type": "function"
    },
    {
      "constant": true,
      "inputs": [],
      "name": "name",
      "outputs": [
        {
          "internalType": "string",
          "name": "",
          "type": "string"
        }
      ],
      "payable": false,
      "stateMutability": "view",
      "type": "function"
    },
    {
      "constant": true,
      "inputs": [],
      "name": "getContractDaiBalance",
      "outputs": [
        {
          "internalType": "uint256",
          "name": "",
          "type": "uint256"
        }
      ],
      "payable": false,
      "stateMutability": "view",
      "type": "function"
    },
    {
      "constant": true,
      "inputs": [],
      "name": "getContractEthBalance",
      "outputs": [
        {
          "internalType": "uint256",
          "name": "",
          "type": "uint256"
        }
      ],
      "payable": false,
      "stateMutability": "view",
      "type": "function"
    },
    {
      "constant": false,
      "inputs": [
        {
          "internalType": "address",
          "name": "_address",
          "type": "address"
        }
      ],
      "name": "getBalance",
      "outputs": [
        {
          "internalType": "uint256",
          "name": "",
          "type": "uint256"
        }
      ],
      "payable": false,
      "stateMutability": "nonpayable",
      "type": "function"
    },
    {
      "constant": false,
      "inputs": [],
      "name": "sellEth",
      "outputs": [],
      "payable": true,
      "stateMutability": "payable",
      "type": "function"
    },
    {
      "constant": false,
      "inputs": [
        {
          "internalType": "uint256",
          "name": "_amount_dai",
          "type": "uint256"
        }
      ],
      "name": "buyEth",
      "outputs": [],
      "payable": true,
      "stateMutability": "payable",
      "type": "function"
    }
  ],
  "bytecode": "0x60806040526040518060400160405280601f81526020017f457468657265756d20446563656e7472616c697a65642045786368616e6765008152506000908051906020019061004f929190610135565b506a084595161401484a00000060025534801561006b57600080fd5b5060405162001179380380620011798339818101604052602081101561009057600080fd5b810190808051906020019092919050505080600160006101000a81548173ffffffffffffffffffffffffffffffffffffffff021916908373ffffffffffffffffffffffffffffffffffffffff1602179055506802b5e3af16b1880000600360003073ffffffffffffffffffffffffffffffffffffffff1673ffffffffffffffffffffffffffffffffffffffff16815260200190815260200160002081905550506101da565b828054600181600116156101000203166002900490600052602060002090601f016020900481019282601f1061017657805160ff19168380011785556101a4565b828001600101855582156101a4579182015b828111156101a3578251825591602001919060010190610188565b5b5090506101b191906101b5565b5090565b6101d791905b808211156101d35760008160009055506001016101bb565b5090565b90565b610f8f80620001ea6000396000f3fe60806040526004361061007b5760003560e01c8063c0fd732a1161004e578063c0fd732a14610194578063cfc444cb1461019e578063f4b9fa75146101c9578063f8b2cb4f146102205761007b565b806306fdde03146100805780634de57d7514610110578063847dd67c1461013b578063b4f40c6114610169575b600080fd5b34801561008c57600080fd5b50610095610285565b6040518080602001828103825283818151815260200191508051906020019080838360005b838110156100d55780820151818401526020810190506100ba565b50505050905090810190601f1680156101025780820380516001836020036101000a031916815260200191505b509250505060405180910390f35b34801561011c57600080fd5b50610125610323565b6040518082815260200191505060405180910390f35b6101676004803603602081101561015157600080fd5b810190808035906020019092919050505061036a565b005b34801561017557600080fd5b5061017e610871565b6040518082815260200191505060405180910390f35b61019c610877565b005b3480156101aa57600080fd5b506101b3610cba565b6040518082815260200191505060405180910390f35b3480156101d557600080fd5b506101de610d9b565b604051808273ffffffffffffffffffffffffffffffffffffffff1673ffffffffffffffffffffffffffffffffffffffff16815260200191505060405180910390f35b34801561022c57600080fd5b5061026f6004803603602081101561024357600080fd5b81019080803573ffffffffffffffffffffffffffffffffffffffff169060200190929190505050610dc1565b6040518082815260200191505060405180910390f35b60008054600181600116156101000203166002900480601f01602080910402602001604051908101604052809291908181526020018280546001816001161561010002031660029004801561031b5780601f106102f05761010080835404028352916020019161031b565b820191906000526020600020905b8154815290600101906020018083116102fe57829003601f168201915b505050505081565b6000600360003073ffffffffffffffffffffffffffffffffffffffff1673ffffffffffffffffffffffffffffffffffffffff16815260200190815260200160002054905090565b80600160009054906101000a900473ffffffffffffffffffffffffffffffffffffffff1673ffffffffffffffffffffffffffffffffffffffff166370a08231336040518263ffffffff1660e01b8152600401808273ffffffffffffffffffffffffffffffffffffffff1673ffffffffffffffffffffffffffffffffffffffff16815260200191505060206040518083038186803b15801561040a57600080fd5b505afa15801561041e573d6000803e3d6000fd5b505050506040513d602081101561043457600080fd5b8101908080519060200190929190505050101561045057600080fd5b600081600160009054906101000a900473ffffffffffffffffffffffffffffffffffffffff1673ffffffffffffffffffffffffffffffffffffffff166370a08231306040518263ffffffff1660e01b8152600401808273ffffffffffffffffffffffffffffffffffffffff1673ffffffffffffffffffffffffffffffffffffffff16815260200191505060206040518083038186803b1580156104f257600080fd5b505afa158015610506573d6000803e3d6000fd5b505050506040513d602081101561051c57600080fd5b8101908080519060200190929190505050019050600061053e60025483610e0a565b9050600081600360003073ffffffffffffffffffffffffffffffffffffffff1673ffffffffffffffffffffffffffffffffffffffff1681526020019081526020016000205403905081600360003073ffffffffffffffffffffffffffffffffffffffff1673ffffffffffffffffffffffffffffffffffffffff1681526020019081526020016000208190555080600360003073ffffffffffffffffffffffffffffffffffffffff1673ffffffffffffffffffffffffffffffffffffffff16815260200190815260200160002054101561061657600080fd5b600160009054906101000a900473ffffffffffffffffffffffffffffffffffffffff1673ffffffffffffffffffffffffffffffffffffffff166323b872dd3330876040518463ffffffff1660e01b8152600401808473ffffffffffffffffffffffffffffffffffffffff1673ffffffffffffffffffffffffffffffffffffffff1681526020018373ffffffffffffffffffffffffffffffffffffffff1673ffffffffffffffffffffffffffffffffffffffff1681526020018281526020019350505050602060405180830381600087803b1580156106f357600080fd5b505af1158015610707573d6000803e3d6000fd5b505050506040513d602081101561071d57600080fd5b8101908080519060200190929190505050503373ffffffffffffffffffffffffffffffffffffffff166108fc829081150290604051600060405180830381858888f19350505050158015610775573d6000803e3d6000fd5b507f2f052bb8396ba3d0d006ad422f64b4cf29b148d4ad4dbba790d06bec720b95ce33600160009054906101000a900473ffffffffffffffffffffffffffffffffffffffff168660025460008060008089604051808a73ffffffffffffffffffffffffffffffffffffffff1673ffffffffffffffffffffffffffffffffffffffff1681526020018973ffffffffffffffffffffffffffffffffffffffff1673ffffffffffffffffffffffffffffffffffffffff168152602001888152602001878152602001868152602001858152602001848152602001838152602001828152602001995050505050505050505060405180910390a150505050565b60025481565b6000349050600081600360003073ffffffffffffffffffffffffffffffffffffffff1673ffffffffffffffffffffffffffffffffffffffff168152602001908152602001600020540190506000670de0b6b3a764000082600254816108d857fe5b040290506000600160009054906101000a900473ffffffffffffffffffffffffffffffffffffffff1673ffffffffffffffffffffffffffffffffffffffff166370a08231306040518263ffffffff1660e01b8152600401808273ffffffffffffffffffffffffffffffffffffffff1673ffffffffffffffffffffffffffffffffffffffff16815260200191505060206040518083038186803b15801561097d57600080fd5b505afa158015610991573d6000803e3d6000fd5b505050506040513d60208110156109a757600080fd5b8101908080519060200190929190505050905060008282039050808210156109ce57600080fd5b600160009054906101000a900473ffffffffffffffffffffffffffffffffffffffff1673ffffffffffffffffffffffffffffffffffffffff1663a9059cbb33836040518363ffffffff1660e01b8152600401808373ffffffffffffffffffffffffffffffffffffffff1673ffffffffffffffffffffffffffffffffffffffff16815260200182815260200192505050602060405180830381600087803b158015610a7757600080fd5b505af1158015610a8b573d6000803e3d6000fd5b505050506040513d6020811015610aa157600080fd5b81019080805190602001909291905050505083600360003073ffffffffffffffffffffffffffffffffffffffff1673ffffffffffffffffffffffffffffffffffffffff168152602001908152602001600020819055507ff476dda3e57b229a35e7c6da54dec7e1c58d1077bf6d7a60d08c5a3ec550b4ba33600160009054906101000a900473ffffffffffffffffffffffffffffffffffffffff16836002548989600160009054906101000a900473ffffffffffffffffffffffffffffffffffffffff1673ffffffffffffffffffffffffffffffffffffffff166370a08231306040518263ffffffff1660e01b8152600401808273ffffffffffffffffffffffffffffffffffffffff1673ffffffffffffffffffffffffffffffffffffffff16815260200191505060206040518083038186803b158015610be157600080fd5b505afa158015610bf5573d6000803e3d6000fd5b505050506040513d6020811015610c0b57600080fd5b8101908080519060200190929190505050604051808873ffffffffffffffffffffffffffffffffffffffff1673ffffffffffffffffffffffffffffffffffffffff1681526020018773ffffffffffffffffffffffffffffffffffffffff1673ffffffffffffffffffffffffffffffffffffffff16815260200186815260200185815260200184815260200183815260200182815260200197505050505050505060405180910390a15050505050565b6000600160009054906101000a900473ffffffffffffffffffffffffffffffffffffffff1673ffffffffffffffffffffffffffffffffffffffff166370a08231306040518263ffffffff1660e01b8152600401808273ffffffffffffffffffffffffffffffffffffffff1673ffffffffffffffffffffffffffffffffffffffff16815260200191505060206040518083038186803b158015610d5b57600080fd5b505afa158015610d6f573d6000803e3d6000fd5b505050506040513d6020811015610d8557600080fd5b8101908080519060200190929190505050905090565b600160009054906101000a900473ffffffffffffffffffffffffffffffffffffffff1681565b6000600360008373ffffffffffffffffffffffffffffffffffffffff1673ffffffffffffffffffffffffffffffffffffffff168152602001908152602001600020549050919050565b600081610e32610e2285670de0b6b3a7640000610e42565b60028581610e2c57fe5b04610ed7565b81610e3957fe5b04905092915050565b600080821480610e5f5750828283850292508281610e5c57fe5b04145b610ed1576040517f08c379a00000000000000000000000000000000000000000000000000000000081526004018080602001828103825260148152602001807f64732d6d6174682d6d756c2d6f766572666c6f7700000000000000000000000081525060200191505060405180910390fd5b92915050565b6000828284019150811015610f54576040517f08c379a00000000000000000000000000000000000000000000000000000000081526004018080602001828103825260148152602001807f64732d6d6174682d6164642d6f766572666c6f7700000000000000000000000081525060200191505060405180910390fd5b9291505056fea265627a7a72315820cfa9002c180fb6c4a6b3843d95be2787fa4d96e0ccc95d50fe366ab1c24a0f6064736f6c63430005100032",
  "source": "pragma solidity <=0.8.4;\n\nimport \"./Dai.sol\";\n\n\ncontract Dex {\n    string public name = \"Ethereum Decentralized Exchange\";\n    Dai public dai;\n    // x * y = k\n    // x (eth) = 50\n    // y (dai) = 200 000\n    // k (constant product) = 10 000 000\n    // price per ETH = 4000\n    uint256 public k = 10000000000000000000000000;\n    mapping (address => uint256) balances;\n\n    function getContractDaiBalance() public view returns (uint256) {\n        return dai.balanceOf(address(this));\n    }\n\n    function getContractEthBalance() public view returns (uint256) {\n        return balances[address(this)];\n    }\n\n    function getBalance(address _address) public returns (uint256) {\n        return balances[_address];\n    }\n\n    event TokensPurchased(\n        address account,\n        address token,\n        uint256 daiToTransfer,\n        uint256 k,\n        uint256 requested,\n        uint256 newEthBalance,\n        uint256 daiBalance\n    );\n\n    event TokensSold(\n        address account,\n        address token,\n        uint256 amount,\n        uint256 k,\n        uint256 contractDaiBalance,\n        uint256 newDaiBalance,\n        uint256 newPrice,\n        uint256 previousBalance,\n        uint256 ethToTransfer\n    );\n\n    constructor(Dai _dai) public {\n        dai = _dai;\n        balances[address(this)] = 50 ether;\n    }\n\n    function sellEth() public payable {\n        uint256 requested = msg.value;\n        uint256 newEthBalance = balances[address(this)] + requested;\n\n        uint256 newPrice = (k / newEthBalance) * 1 ether;\n        uint256 daiBalance = dai.balanceOf(address(this));\n        uint256 daiToTransfer = daiBalance - newPrice;\n\n        require(daiBalance >= daiToTransfer);\n\n        dai.transfer(msg.sender, daiToTransfer);\n        balances[address(this)] = newEthBalance;\n\n        emit TokensPurchased(msg.sender, address(dai), daiToTransfer, k, requested, newEthBalance, dai.balanceOf(address(this)));\n    }\n\n    function add(uint x, uint y) internal pure returns (uint z) {\n        require((z = x + y) >= x, \"ds-math-add-overflow\");\n    }\n    function mul(uint x, uint y) internal pure returns (uint z) {\n        require(y == 0 || (z = x * y) / y == x, \"ds-math-mul-overflow\");\n    }\n    uint constant WAD = 10 ** 18;\n    function div(uint x, uint y) internal pure returns (uint z) {\n        z = add(mul(x, WAD), y / 2) / y;\n    }\n\n    function buyEth(uint256 _amount_dai) public payable {\n        require(dai.balanceOf(msg.sender) >= _amount_dai);\n\n        uint256 newDaiBalance = dai.balanceOf(address(this)) + _amount_dai;\n        uint256 newPrice = div(k, newDaiBalance);\n        uint256 ethToTransfer = balances[address(this)] - newPrice;\n        balances[address(this)] = newPrice;\n\n        require(balances[address(this)] >= ethToTransfer);\n\n        dai.transferFrom(msg.sender, address(this), _amount_dai);\n        msg.sender.transfer(ethToTransfer);\n\n        // emit TokensSold(msg.sender, address(dai), _amount_dai, k, contractDaiBalance, newDaiBalance, newPrice, previousBalance, ethToTransfer);\n        emit TokensSold(msg.sender, address(dai), _amount_dai, k, 0, 0, 0, 0, ethToTransfer);\n    }\n}\n",
  "sourcePath": "C:/Zavrsni/eth_dex/src/contracts/Dex.sol",
  "compiler": {
    "name": "solc",
    "version": "0.5.16+commit.9c3226ce.Emscripten.clang"
  },
  "schemaVersion": "3.3.3",
  "updatedAt": "2021-05-30T13:04:13.500Z",
  "networkType": "ethereum",
  "devdoc": {
    "methods": {}
  },
  "userdoc": {
    "methods": {}
  }
}